{
  "_format": "hh-sol-artifact-1",
  "contractName": "P2PFileMarketplace",
  "sourceName": "contracts/MyContract.sol",
  "abi": [
    {
      "anonymous": false,
      "inputs": [
        {
          "indexed": true,
          "internalType": "uint256",
          "name": "fileId",
          "type": "uint256"
        },
        {
          "indexed": true,
          "internalType": "address",
          "name": "seller",
          "type": "address"
        },
        {
          "indexed": false,
          "internalType": "string",
          "name": "title",
          "type": "string"
        },
        {
          "indexed": false,
          "internalType": "uint256",
          "name": "price",
          "type": "uint256"
        }
      ],
      "name": "FileListed",
      "type": "event"
    },
    {
      "anonymous": false,
      "inputs": [
        {
          "indexed": true,
          "internalType": "uint256",
          "name": "fileId",
          "type": "uint256"
        },
        {
          "indexed": true,
          "internalType": "address",
          "name": "buyer",
          "type": "address"
        },
        {
          "indexed": true,
          "internalType": "address",
          "name": "seller",
          "type": "address"
        },
        {
          "indexed": false,
          "internalType": "uint256",
          "name": "price",
          "type": "uint256"
        }
      ],
      "name": "FilePurchased",
      "type": "event"
    },
    {
      "inputs": [],
      "name": "fileCount",
      "outputs": [
        {
          "internalType": "uint256",
          "name": "",
          "type": "uint256"
        }
      ],
      "stateMutability": "view",
      "type": "function"
    },
    {
      "inputs": [
        {
          "internalType": "uint256",
          "name": "",
          "type": "uint256"
        }
      ],
      "name": "files",
      "outputs": [
        {
          "internalType": "address",
          "name": "seller",
          "type": "address"
        },
        {
          "internalType": "string",
          "name": "title",
          "type": "string"
        },
        {
          "internalType": "string",
          "name": "description",
          "type": "string"
        },
        {
          "internalType": "uint256",
          "name": "price",
          "type": "uint256"
        },
        {
          "internalType": "bytes",
          "name": "encryptedPeerInfo",
          "type": "bytes"
        },
        {
          "internalType": "bool",
          "name": "active",
          "type": "bool"
        }
      ],
      "stateMutability": "view",
      "type": "function"
    },
    {
      "inputs": [
        {
          "internalType": "uint256",
          "name": "fileId",
          "type": "uint256"
        }
      ],
      "name": "getPeerInfo",
      "outputs": [
        {
          "internalType": "bytes",
          "name": "",
          "type": "bytes"
        }
      ],
      "stateMutability": "view",
      "type": "function"
    },
    {
      "inputs": [
        {
          "internalType": "string",
          "name": "title",
          "type": "string"
        },
        {
          "internalType": "string",
          "name": "description",
          "type": "string"
        },
        {
          "internalType": "uint256",
          "name": "price",
          "type": "uint256"
        },
        {
          "internalType": "bytes",
          "name": "encryptedPeerInfo",
          "type": "bytes"
        }
      ],
      "name": "listFile",
      "outputs": [],
      "stateMutability": "nonpayable",
      "type": "function"
    },
    {
      "inputs": [
        {
          "internalType": "uint256",
          "name": "fileId",
          "type": "uint256"
        }
      ],
      "name": "purchaseFile",
      "outputs": [],
      "stateMutability": "payable",
      "type": "function"
    }
  ],
  "bytecode": "0x608060405234801561001057600080fd5b50611324806100206000396000f3fe60806040526004361061004a5760003560e01c8063439535191461004f5780639de20c001461007a578063d3b01a13146100b7578063ebe016de146100e0578063f4c714b4146100fc575b600080fd5b34801561005b57600080fd5b5061006461013e565b60405161007191906108b0565b60405180910390f35b34801561008657600080fd5b506100a1600480360381019061009c9190610901565b610144565b6040516100ae91906109be565b60405180910390f35b3480156100c357600080fd5b506100de60048036038101906100d99190610a9b565b610243565b005b6100fa60048036038101906100f59190610901565b6104d8565b005b34801561010857600080fd5b50610123600480360381019061011e9190610901565b610696565b60405161013596959493929190610c15565b60405180910390f35b60005481565b606060006001600084815260200190815260200160002090508060050160009054906101000a900460ff166101ae576040517f08c379a00000000000000000000000000000000000000000000000000000000081526004016101a590610cd7565b60405180910390fd5b8060040180546101bd90610d26565b80601f01602080910402602001604051908101604052809291908181526020018280546101e990610d26565b80156102365780601f1061020b57610100808354040283529160200191610236565b820191906000526020600020905b81548152906001019060200180831161021957829003601f168201915b5050505050915050919050565b6000831015610287576040517f08c379a000000000000000000000000000000000000000000000000000000000815260040161027e90610da3565b60405180910390fd5b60008081548092919061029990610df2565b91905055506040518060c001604052803373ffffffffffffffffffffffffffffffffffffffff16815260200188888080601f016020809104026020016040519081016040528093929190818152602001838380828437600081840152601f19601f82011690508083019250505050505050815260200186868080601f016020809104026020016040519081016040528093929190818152602001838380828437600081840152601f19601f82011690508083019250505050505050815260200184815260200183838080601f016020809104026020016040519081016040528093929190818152602001838380828437600081840152601f19601f82011690508083019250505050505050815260200160011515815250600160008054815260200190815260200160002060008201518160000160006101000a81548173ffffffffffffffffffffffffffffffffffffffff021916908373ffffffffffffffffffffffffffffffffffffffff16021790555060208201518160010190816104209190611015565b5060408201518160020190816104369190611015565b506060820151816003015560808201518160040190816104569190611142565b5060a08201518160050160006101000a81548160ff0219169083151502179055509050503373ffffffffffffffffffffffffffffffffffffffff166000547fb00bb9e44070203c005d9562433798206d9a917c969e2125710aeb1aeeb995318989876040516104c793929190611250565b60405180910390a350505050505050565b60006001600083815260200190815260200160002090508060050160009054906101000a900460ff16610540576040517f08c379a000000000000000000000000000000000000000000000000000000000815260040161053790610cd7565b60405180910390fd5b8060030154341015610587576040517f08c379a000000000000000000000000000000000000000000000000000000000815260040161057e906112ce565b60405180910390fd5b600081600301541115610604578060000160009054906101000a900473ffffffffffffffffffffffffffffffffffffffff1673ffffffffffffffffffffffffffffffffffffffff166108fc82600301549081150290604051600060405180830381858888f19350505050158015610602573d6000803e3d6000fd5b505b8060000160009054906101000a900473ffffffffffffffffffffffffffffffffffffffff1673ffffffffffffffffffffffffffffffffffffffff163373ffffffffffffffffffffffffffffffffffffffff16837f8e6fa1282ed78eeff7b91d1bf83f19639c3cd25bfa0791f032b58175a1cf79fd846003015460405161068a91906108b0565b60405180910390a45050565b60016020528060005260406000206000915090508060000160009054906101000a900473ffffffffffffffffffffffffffffffffffffffff16908060010180546106df90610d26565b80601f016020809104026020016040519081016040528092919081815260200182805461070b90610d26565b80156107585780601f1061072d57610100808354040283529160200191610758565b820191906000526020600020905b81548152906001019060200180831161073b57829003601f168201915b50505050509080600201805461076d90610d26565b80601f016020809104026020016040519081016040528092919081815260200182805461079990610d26565b80156107e65780601f106107bb576101008083540402835291602001916107e6565b820191906000526020600020905b8154815290600101906020018083116107c957829003601f168201915b50505050509080600301549080600401805461080190610d26565b80601f016020809104026020016040519081016040528092919081815260200182805461082d90610d26565b801561087a5780601f1061084f5761010080835404028352916020019161087a565b820191906000526020600020905b81548152906001019060200180831161085d57829003601f168201915b5050505050908060050160009054906101000a900460ff16905086565b6000819050919050565b6108aa81610897565b82525050565b60006020820190506108c560008301846108a1565b92915050565b600080fd5b600080fd5b6108de81610897565b81146108e957600080fd5b50565b6000813590506108fb816108d5565b92915050565b600060208284031215610917576109166108cb565b5b6000610925848285016108ec565b91505092915050565b600081519050919050565b600082825260208201905092915050565b60005b8381101561096857808201518184015260208101905061094d565b60008484015250505050565b6000601f19601f8301169050919050565b60006109908261092e565b61099a8185610939565b93506109aa81856020860161094a565b6109b381610974565b840191505092915050565b600060208201905081810360008301526109d88184610985565b905092915050565b600080fd5b600080fd5b600080fd5b60008083601f840112610a0557610a046109e0565b5b8235905067ffffffffffffffff811115610a2257610a216109e5565b5b602083019150836001820283011115610a3e57610a3d6109ea565b5b9250929050565b60008083601f840112610a5b57610a5a6109e0565b5b8235905067ffffffffffffffff811115610a7857610a776109e5565b5b602083019150836001820283011115610a9457610a936109ea565b5b9250929050565b60008060008060008060006080888a031215610aba57610ab96108cb565b5b600088013567ffffffffffffffff811115610ad857610ad76108d0565b5b610ae48a828b016109ef565b9750975050602088013567ffffffffffffffff811115610b0757610b066108d0565b5b610b138a828b016109ef565b95509550506040610b268a828b016108ec565b935050606088013567ffffffffffffffff811115610b4757610b466108d0565b5b610b538a828b01610a45565b925092505092959891949750929550565b600073ffffffffffffffffffffffffffffffffffffffff82169050919050565b6000610b8f82610b64565b9050919050565b610b9f81610b84565b82525050565b600081519050919050565b600082825260208201905092915050565b6000610bcc82610ba5565b610bd68185610bb0565b9350610be681856020860161094a565b610bef81610974565b840191505092915050565b60008115159050919050565b610c0f81610bfa565b82525050565b600060c082019050610c2a6000830189610b96565b8181036020830152610c3c8188610bc1565b90508181036040830152610c508187610bc1565b9050610c5f60608301866108a1565b8181036080830152610c718185610985565b9050610c8060a0830184610c06565b979650505050505050565b7f46696c65206e6f74206163746976650000000000000000000000000000000000600082015250565b6000610cc1600f83610bb0565b9150610ccc82610c8b565b602082019050919050565b60006020820190508181036000830152610cf081610cb4565b9050919050565b7f4e487b7100000000000000000000000000000000000000000000000000000000600052602260045260246000fd5b60006002820490506001821680610d3e57607f821691505b602082108103610d5157610d50610cf7565b5b50919050565b7f496e76616c696420707269636500000000000000000000000000000000000000600082015250565b6000610d8d600d83610bb0565b9150610d9882610d57565b602082019050919050565b60006020820190508181036000830152610dbc81610d80565b9050919050565b7f4e487b7100000000000000000000000000000000000000000000000000000000600052601160045260246000fd5b6000610dfd82610897565b91507fffffffffffffffffffffffffffffffffffffffffffffffffffffffffffffffff8203610e2f57610e2e610dc3565b5b600182019050919050565b7f4e487b7100000000000000000000000000000000000000000000000000000000600052604160045260246000fd5b60008190508160005260206000209050919050565b60006020601f8301049050919050565b600082821b905092915050565b600060088302610ecb7fffffffffffffffffffffffffffffffffffffffffffffffffffffffffffffffff82610e8e565b610ed58683610e8e565b95508019841693508086168417925050509392505050565b6000819050919050565b6000610f12610f0d610f0884610897565b610eed565b610897565b9050919050565b6000819050919050565b610f2c83610ef7565b610f40610f3882610f19565b848454610e9b565b825550505050565b600090565b610f55610f48565b610f60818484610f23565b505050565b5b81811015610f8457610f79600082610f4d565b600181019050610f66565b5050565b601f821115610fc957610f9a81610e69565b610fa384610e7e565b81016020851015610fb2578190505b610fc6610fbe85610e7e565b830182610f65565b50505b505050565b600082821c905092915050565b6000610fec60001984600802610fce565b1980831691505092915050565b60006110058383610fdb565b9150826002028217905092915050565b61101e82610ba5565b67ffffffffffffffff81111561103757611036610e3a565b5b6110418254610d26565b61104c828285610f88565b600060209050601f83116001811461107f576000841561106d578287015190505b6110778582610ff9565b8655506110df565b601f19841661108d86610e69565b60005b828110156110b557848901518255600182019150602085019450602081019050611090565b868310156110d257848901516110ce601f891682610fdb565b8355505b6001600288020188555050505b505050505050565b60008190508160005260206000209050919050565b601f82111561113d5761110e816110e7565b61111784610e7e565b81016020851015611126578190505b61113a61113285610e7e565b830182610f65565b50505b505050565b61114b8261092e565b67ffffffffffffffff81111561116457611163610e3a565b5b61116e8254610d26565b6111798282856110fc565b600060209050601f8311600181146111ac576000841561119a578287015190505b6111a48582610ff9565b86555061120c565b601f1984166111ba866110e7565b60005b828110156111e2578489015182556001820191506020850194506020810190506111bd565b868310156111ff57848901516111fb601f891682610fdb565b8355505b6001600288020188555050505b505050505050565b82818337600083830152505050565b600061122f8385610bb0565b935061123c838584611214565b61124583610974565b840190509392505050565b6000604082019050818103600083015261126b818587611223565b905061127a60208301846108a1565b949350505050565b7f496e73756666696369656e74207061796d656e74000000000000000000000000600082015250565b60006112b8601483610bb0565b91506112c382611282565b602082019050919050565b600060208201905081810360008301526112e7816112ab565b905091905056fea26469706673582212204b631c7d3ae8bb2bc2745dd8de457fb6edd142191be36afa1b8b7a44824db0fa64736f6c63430008140033",
  "linkReferences": {},
  "deployedLinkReferences": {}
}